:08000000803102288731FB2F3B
:100D240016302100970008006A30210099009801CC
:100D34002200960108008631A72686318631962640
:100D44008631863192268631080022008C018D017D
:100D5400FF3021008C008D0123008D0103308C00B5
:100D640024008D018C012100951722009D019E0114
:100D74000800553022008D000230F1000430F000EC
:100D8400BA30890BC32EF00BC32EF10BC32E0032E5
:100D9400AA3022008D000230F1000430F000BA3095
:100DA400890BD22EF00BD22EF10BD22E003208007A
:100DB400013022008D00F10122000D358D008230BA
:100DC400F000DE30890BE42EF00BE42E0130F0004D
:100DD4007008F10707307102031CF12EF22EDE2E8B
:100DE400F10122000D368D008230F000DE30890BD7
:100DF400F92EF00BF92E0130F0007008F1070730DE
:100E04007102031C062F072FF32E08001030F00088
:100E14007008F1000830F0007008F200F301710866
:100E2400720422008D007135F0007008F1007236F2
:100E3400F0007008F2004130F000EE30890B202FF2
:100E4400F00B202F00320130F0007008F30703305C
:100E54007302031C2E2F2F2F112FF301710872041C
:100E640022008D007136F0007008F1007235F00038
:100E74007008F2004130F000EE30890B3F2FF00B88
:100E84003F2F00320130F0007008F3070330730283
:100E9400031C4D2F4E2F302F080022008D01863168
:100EA4009D26873120008C1D582F592F5C2FF5016A
:100EB40022008D0120000C1D602F612F652F013051
:100EC400F4007408F5077503031D692F6A2F6D2F4D
:100ED4008631DA26873102307506031D722F732F8F
:100EE400762F87310827873103307506031D7B2F42
:100EF4007C2F7F2F87319B27873104307506031D94
:100F0400842F852F862FF50120000C1E8A2F8B2F0E
:100F14008F2F0530F4007408F50005307506031DA5
:100F2400942F952F542F8631BB268731542F80312F
:100F34000228023022008D000230F1000430F0005B
:100F4400BA30890BA32FF00BA32FF10BA32F003280
:100F5400F20122000D08F0000130F035FF3E031DC0
:100F6400AF2F70358D000230F1000430F000BA303C
:100F7400890BBA2FF00BBA2FF10BBA2F00320130C4
:100F8400F0007008F20703307202031CCA2FCB2F43
:100F9400AB2F403022008D000230F1000430F0000D
:100FA400BA30890BD32FF00BD32FF10BD32F003290
:100FB400F20122000D08F0000230F036890BDF2F19
:100FC40070088D000230F1000430F000BA30890B53
:100FD400E92FF00BE92FF10BE92F00320130F0007B
:100FE4007008F20703307202031CF92FFA2FDB2F6B
:0C0FF4000800F501F601200087314F2FA6
:020000040001F9
:08000000FF3FFF3FFF3FFF3F00
:04000E00E43FFF3E8E
:00000001FF
